:020000040800F2
:1000000020510020AD020008712800086D2800086A
:100010006F280008330800081F3D0008000000009A
:10002000000000000000000000000000FD2A0008A1
:10003000350800080000000073280008012B0008A4
:10004000C7020008C7020008C7020008C70200086C
:10005000C7020008C7020008C7020008C70200085C
:10006000C7020008C7020008C7020008C70200084C
:10007000C7020008C7020008C7020008C70200083C
:10008000C7020008C7020008C7020008C70200082C
:10009000C7020008C7020008C7020008C70200081C
:1000A000C7020008C7020008C7020008C70200080C
:1000B000C7020008C7020008C7020008C7020008FC
:1000C000C7020008C7020008C7020008C7020008EC
:1000D000C7020008C7020008C7020008C7020008DC
:1000E000C7020008C702000800000000C70200089D
:1000F000C7020008C7020008C7020008C7020008BC
:10010000C7020008C7020008C7020008C7020008AB
:10011000C7020008C7020008C7020008C70200089B
:10012000C7020008C7020008C7020008C70200088B
:10013000C7020008C7020008C7020008C70200087B
:10014000C7020008C702000800000000000000000D
:10015000C7020008C7020008C7020008C70200085B
:10016000C7020008C7020008C7020008C70200084B
:10017000C7020008C7020008C7020008000000000C
:10018000C7020008C7020008C7020008C70200082B
:10019000C7020008C7020008C7020008C70200081B
:1001A000C7020008C7020008C7020008C70200080B
:1001B000C7020008C7020008C7020008C7020008FB
:1001C000C7020008C7020008C7020008C7020008EB
:1001D000C7020008C7020008C7020008C7020008DB
:1001E000C7020008C7020008C7020008C7020008CB
:1001F000C7020008C7020008C7020008C7020008BB
:10020000C7020008C7020008C7020008C7020008AA
:10021000C7020008C7020008C7020008C70200089A
:10022000C7020008C7020008C7020008000000005B
:10023000C7020008C7020008C7020008C70200087A
:10024000C7020008C7020008C7020008C70200086A
:10025000C7020008C7020008C7020008C70200085A
:10026000C7020008C7020008C7020008C70200084A
:10027000C7020008C7020008C7020008C70200083A
:10028000C7020008C7020008C702000800000000FB
:10029000C7020008C7020008DFF80CD000F048FAD7
:1002A00000480047914F0008205100200648804731
:1002B00006480047FEE7FEE7FEE7FEE7FEE7FEE74B
:1002C000FEE7FEE7FEE7FEE7C92B000899020008FB
:1002D0002DE9F05F0546002092469B46884606467B
:1002E000814640241BE0284641464746224600F00E
:1002F00057F853465A46C01A914110D31146184632
:10030000224600F03EF82D1A67EB01084F462246C0
:100310000120002100F035F817EB00094E41201EA6
:10032000A4F10104DFDC484631462A464346BDE8D5
:10033000F09FD2B201E000F8012B491EFBD27047BA
:100340000022F6E710B513460A4604461946FFF7A1
:10035000F0FF204610BD30B50B460146002020229C
:10036000012409E021FA02F59D4205D303FA02F5C2
:10037000491B04FA02F52844151EA2F10102F1DC22
:1003800030BD202A04DB203A00FA02F10020704739
:100390009140C2F1200320FA03F3194390407047C3
:1003A000202A04DB203A21FA02F00021704721FACA
:1003B00002F3D040C2F12002914008431946704731
:1003C0002DE9FE4F804681EA0300C00F0C460090E5
:1003D00021F0004123F00045B8EB0200A94105D20D
:1003E0004046214690461C460B46024623F00040FC
:1003F000104347D0270DC7F30A00C3F30A510290F8
:10040000401A019040286BDAC3F3130040F4801BBC
:100410000098924620B10023D2EB030A63EB0B0B4A
:1004200001985946C0F140025046FFF7AAFF064620
:100430000D4650465946019A00F08CF910EB080021
:100440006141002487EA115284EAE7731A4340D0DD
:10045000009A62B3019A012A4FEA075215DC001B89
:1004600061EB02014FF0004202EA0752CDE900427F
:10047000001C41F5801132462B4600F08CF903B088
:10048000BDE8F08F40462146F9E7001B61EB020111
:10049000001C41F5801300185B412018A2F50017DD
:1004A00047EB030140EAD570B6196D4111E06D08C4
:1004B0004FEA360645EAC0754FEA0752001B61EB6A
:1004C0000201001C41F5801149084FEA3000001973
:1004D000514132462B4603B0BDE8F04F00F04CB915
:1004E0000098012240000023D0EB020263EBE0738E
:1004F000009821464FEAE074B8EB000061EB04017C
:10050000E9E783F000435BE781F0004158E72DE91C
:10051000FE4F81EA030404F0004421F000410094FE
:100520004FF0000B23F0004350EA01045ED052EA82
:1005300003045BD0C3F30A54C1F30A552C44A4F25C
:10054000F3340194A0FB0254C1F3130141F4801170
:10055000C3F3130343F4801301FB024400FB034E77
:10056000840A970A44EA815447EA8357A4FB076840
:1005700002958D0A05FB07854FEA932C04FB0C546A
:100580002705029D4FEA065847EA1637B5EB0805DE
:100590006EEB070C870E920E47EA811742EA831230
:1005A000A7FB0201B6EB0B0164EB00042B0D43EA41
:1005B0000C335E1844EB1C50DA465146E7FB02014F
:1005C000C5F313044FEA0B3343EA14534FEA0432E2
:1005D000019C43EA0603A4F10C040294009CCDE9BB
:1005E00000B400F0D8F803B0BDE8F08F0020014659
:1005F000F9E72DE9F04D81EA030404F0004B21F006
:10060000004514464FF0000A23F0004150EA05026D
:1006100020D054EA01021DD0C5F30A570246C5F3A3
:100620001303C1F31300C1F30A5640F4801543F4D9
:100630008013A7EB0608101BD64608F2FD3873EBB3
:10064000050002D308F1010801E092185B41B8F1FE
:10065000000F03DA00200146BDE8F08D00204FF4C2
:100660008011064684460EE0171B73EB050705D381
:10067000121B63EB050306434CEA010C49084FEAE1
:10068000300092185B4150EA0107EDD152EA0300B5
:1006900012D082EA040083EA0501084305D0101B4A
:1006A000AB4106D20122002306E000224FF00043B6
:1006B00002E06FF0010253101AEB06004CEB0851F8
:1006C00010EB0A0041EB0B01BDE8F04D00F054B80F
:1006D000C1F30A52C1F3130140F2FF3341F4801118
:1006E0009A4202DA00200146704740F233439A42B0
:1006F000A2F2334202DC5242FFF752BEFFF741BE84
:1007000030B5041E71F1000404DB4FF00044404298
:1007100064EB0101141E73F1000405DB1C464FF06D
:100720000043524263EB0403994208BF904230BD3C
:10073000064C074D06E0E06840F0010394E807002E
:1007400098471034AC42F6D3FFF7AAFD5860000872
:1007500078600008202A06DBCB17203A41FA02F025
:1007600043EAE07306E041FA02F3D040C2F120020E
:10077000914008431946704710B5141E73F10004E8
:1007800008DA401C41F1000192185B411A4301D183
:1007900020F0010010BD2DE9F04D92469B4611B1AD
:1007A000B1FA81F202E0B0FA80F220329046FFF70F
:1007B000E8FD04460F4640EA0A0041EA0B015346B1
:1007C0005A46084313D0114653EA010019D0C8F124
:1007D00040025046FFF7E4FD05460E465046594696
:1007E0004246FFF7CEFD084305D0012004E0204635
:1007F0003946BDE8F08D0020054346EAE0762C43FB
:1008000037430A986305E40AA0EB08000022FD0ABA
:1008100044EA47540A3002D500200146E9E70105C1
:1008200010196941DDE9084500196941BDE8F04D3D
:10083000A2E7FEE7704700000B680022DFF824C241
:10084000002B08BF70472DE9F84F01274FF0030B2D
:100850004FF00F080B6807FA02F6334000F0FA80F9
:100860004C68022C18BF122C14D14FEAD205D1F8D3
:1008700010E04FEA427400EB8505D5F820904FEA6E
:10088000D46408FA04FA0EFA04F429EA0A0944EADC
:1008900009042C6291F804A04FEA4204D0F80090B9
:1008A0000AF0030A0BFA04F50AFA04FA29EA050920
:1008B0004AEA0909C0F80090D1F80490B9F1010F93
:1008C00018BFB9F1020F05D0B9F1110F18BFB9F176
:1008D000120F18D1D0F80890D1F80CA029EA050918
:1008E0000AFA04FA4AEA0909C0F80890D0F804A004
:1008F00091F804902AEA0606C9F3001909FA02F9E8
:1009000049EA06064660C668D1F8089026EA050559
:1009100009FA04F444EA0504C4604C6814F0805FEA
:100920007DD0514C256845F002052560246822F0F1
:10093000030505F1B04504F0020400944FEA827407
:10094000D5F808644FEA1474A0F1B04908FA04FA23
:10095000B9F5003926EA0A0608BF4FF0000948D069
:10096000A0F1B049B9F5013908BF4FF0010940D0F5
:10097000A0F1B049B9F5023908BF4FF0020938D0EB
:10098000A0F1B049B9F5033908BF4FF0030930D0E1
:10099000A0F1B049B9F5043908BF4FF0040928D0D7
:1009A000A0F1B049B9F5053908BF4FF0050920D0CD
:1009B000A0F1B049B9F5063908BF4FF0060918D0C3
:1009C000A0F1B049B9F5073908BF4FF0070910D0B9
:1009D000A0F1B049B9F5083908BF4FF0080908D0AF
:1009E000A0F1B049B9F509390CBF4FF009094FF032
:1009F0000A0909FA04F43443C5F80844DCF8004055
:100A00004D6824EA030415F4803F18BF1C43CCF85A
:100A10000040DCF804404D6815F4003F00E019E0A8
:100A200024EA030418BF1C43CCF804404FF0B04440
:100A30004E68256816F4801F25EA030518BF1D437C
:100A400025604E68656816F4001F25EA030518BF87
:100A50001D4365600B68521CD3407FF4FBAEBDE8BC
:100A6000F88F000080000058F444025804480068E1
:100A7000C0F3031007280CBF0320012070470000BB
:100A800000ED00E001480068000C70470010005CB9
:100A900001488068704700007C0000208100064803
:100AA00001F1B04101F51831D1F8801481420CBF39
:100AB000002001207047000000030080800000F14A
:100AC000B04000F5183041F44071C0F80014704790
:100AD000032010B500F09AF801F014F91049114AFA
:100AE000114BD1F800C0CCF3032C12F80CC00CF061
:100AF0001F0C20FA0CF01860096801F00F01515C1E
:100B000001F01F01C84009490860002000F010F8FA
:100B100000281CBF012010BD00F03AF8002010BDD5
:100B200018440258E85E0008880000208C0000206D
:100B300070B5154C0546207820B3FFF797FF0328C2
:100B40004FF47A760AD001F083F82178B6FBF1F100
:100B5000B0FBF1F001F07CFC50B113E020780B49C0
:100B6000B6FBF0F00968B1FBF0F001F071FC48B998
:100B7000102D07D200222946501E00F017F8002041
:100B8000656070BD012070BD7C00002088000020E1
:100B9000054881B0016841F002010160006800F081
:100BA0000200009001B07047F4440258164B30B474
:100BB0001B68C3F30223C3F1070CBCF1040F88BF09
:100BC0004FF0040C1C1D072C34BF0023DB1E012436
:100BD00004FA0CFC04FA03F5ACF101042140A5F180
:100BE000010C99400CEA0202114300284FEA01115E
:100BF000B8BF00F00F0000F1E020ACBF80F8001497
:100C000080F8141D30BC70470CED00E0074900F07F
:100C100007004FF6FF030A681A4042EA002040F03E
:100C2000FD7040F080600860704700000CED00E04F
:100C30002DE9F041224C0546206800F00700062807
:100C400007D0206800F03F00A8421CBF0120BDE88B
:100C5000F081206820F03F0028432060FFF718FF54
:100C6000184F0646386810F4005F09D1FFF710FFEF
:100C7000801BB0F57A7F19D8386810F4005FF5D082
:100C80001E2D18BF2E2D03D01D2D18BF2D2D14D1B4
:100C9000FFF7FEFE0546206810F4803F0DD100BF2F
:100CA000FFF7F6FE401BB0F57A7F02D90320BDE8BE
:100CB000F081206810F4803FF2D00020BDE8F08180
:100CC0000C4802580448025810B501F01BF8064AB7
:100CD00006491268064BC2F303229A5C02F01F0217
:100CE000D040086010BD0000184402588800002061
:100CF000E85E000810B500F0ABFF05490968054A39
:100D0000C1F30211515C01F01F01C84010BD000089
:100D100020440258E85E000861494DF8044DDFF8B0
:100D200084C10B1D0A6809681C68DCF800C002F069
:100D3000030304F01002C1F30531CCF3CC0C0029FD
:100D40001CFB02F200EE102AF8EE400A7DD09FED67
:100D5000561A564AB7EE000ACBB1DFED551A012BF1
:100D600001D0022B4ED002EE101A1168F8EE422A82
:100D7000C1F3080181EEA22A01EE901AF8EE611A81
:100D800040EE811A71EE800A62EE200A4FE0494B74
:100D9000D3F800C01CF0200F1ED0DFF81CC11B6868
:100DA00001EE901AC3F3C1011368F8EE612A2CFA20
:100DB00001F101EE901AC3F30801F8EE611A81EE19
:100DC000A22A01EE901AF8EE611A40EE811A71EE35
:100DD000800A62EE200A2AE001EE901A1168DFED27
:100DE000372AF8EE611AC1F3080182EEA12A01EE5A
:100DF000901AF8EE611A40EE811A71EE800A62EEE6
:100E0000200A14E001EE901A1168DFED2D2AF8EEA9
:100E1000611AC1F3080182EEA12A01EE901AF8EEE0
:100E2000611A40EE811A71EE800A62EE200A1168A2
:100E3000C1F3462101EE101AB8EE411A31EE001A44
:100E4000C0EE811ABCEEE11A00E022E080ED001A4B
:100E50001168C1F3064101EE101AB8EE411A31EEE5
:100E6000001AC0EE811ABCEEE11A80ED011A116879
:100E7000C1F3066101EE101AB8EE411A31EE000A14
:100E800080EE801ABCEEC10A80ED020A5DF8044BC8
:100E9000704700210160416081605DF8044B70473C
:100EA000284402583C440258000000393844025893
:100EB0000024744A004402580090D0030024744C6B
:100EC0000024F44A61494DF8044DDFF884C10B1D3C
:100ED0000A6809681C68DCF800C002F0030304F427
:100EE0008072C1F30551CCF3CC0C00291CFB02F23B
:100EF00000EE102AF8EE400A7DD09FED561A564AB1
:100F0000B7EE000ACBB1DFED551A012B01D0022B51
:100F10004ED002EE101A1168F8EE422AC1F3080111
:100F200081EEA22A01EE901AF8EE611A40EE811AC3
:100F300071EE800A62EE200A4FE0494BD3F800C000
:100F40001CF0200F1ED0DFF81CC11B6801EE901AA8
:100F5000C3F3C1011368F8EE612A2CFA01F101EE26
:100F6000901AC3F30801F8EE611A81EEA22A01EE8D
:100F7000901AF8EE611A40EE811A71EE800A62EE64
:100F8000200A2AE001EE901A1168DFED372AF8EE08
:100F9000611AC1F3080182EEA12A01EE901AF8EE5F
:100FA000611A40EE811A71EE800A62EE200A14E0A6
:100FB00001EE901A1168DFED2D2AF8EE611AC1F3E7
:100FC000080182EEA12A01EE901AF8EE611A40EEB5
:100FD000811A71EE800A62EE200A1168C1F346217F
:100FE00001EE101AB8EE411A31EE001AC0EE811A65
:100FF000BCEEE11A00E022E080ED001A1168C1F3B6
:10100000064101EE101AB8EE411A31EE001AC0EE98
:10101000811ABCEEE11A80ED011A1168C1F3066174
:1010200001EE101AB8EE411A31EE000A80EE801A75
:10103000BCEEC10A80ED020A5DF8044B7047002146
:101040000160416081605DF8044B7047284402589C
:101050004444025800000039404402580024744AB5
:10106000004402580090D0030024744C0024F44A39
:101070002DE9F05F0025044600682E46FD4FDFF89D
:10108000F88310F0006F1FD0606E58B1B0F5801F6C
:101090000DD0B0F5001F0FD0B0F5401F18BF0125CF
:1010A0001ED010E0386840F40030386018E00221AB
:1010B000201D01F0DFFB04E0022104F1240001F017
:1010C0007BFC05000CD02E46208810F4807F24D0B5
:1010D000606D05281FD2DFE800F00C11161C1C0003
:1010E000606ED8F8001021F440110843C8F80000E1
:1010F000EAE7386840F4003038600AE00021201D3B
:1011000001F0B8FB04E0002104F1240001F054FCDC
:1011100005467DB100E001252E46208810F4007FB1
:101120002BD0A06D802820D00DDC90B1402815D0A8
:10113000012521E0606DD8F8001021F00701084377
:10114000C8F80000E9E7C02818BFB0F5807FEFD1EC
:1011500011E0386840F4003038600CE004F104001D
:101160004FF0000101F086FB04E0002104F12400AF
:1011700001F022FC054695B12E462088DFF8FC924E
:1011800010F4806F2FD0D4F8A400B0F5800F22D0D7
:101190000EDCA0B1B0F5001F16D0012522E0A06D35
:1011A000D8F8001021F4E0710843C8F80000E4E723
:1011B000B0F5C00F18BFB0F5000FEED111E03868E0
:1011C00040F4003038600CE004F104004FF00001FE
:1011D00001F050FB04E0002104F1240001F0ECFBDD
:1011E000054685B12E46208810F4006F30D0D4F823
:1011F000A800B0F1007F23D00FDCA8B1B0F1807F50
:1012000017D0012523E0D4F8A400D9F8001021F468
:1012100060010843C9F80000E5E7B0F1407F18BF5E
:10122000B0F1806FEDD111E0386840F400303860E3
:101230000CE004F104004FF0000101F01BFB04E09E
:10124000002104F1240001F0B7FB05467DB12E46D4
:10125000206810F0007F20D0A06CE0B1102810D0E2
:10126000202813D0302818BF012514D014E0D4F85A
:10127000A800D9F8001021F0E0610843C9F8000087
:10128000E6E7386840F40030386004E00221201DB1
:1012900001F0F0FA05467DB12E46208810F4805FFB
:1012A0002DD0E06DB0F5005F21D00DDC98B1B0F528
:1012B000805F15D0012521E07148A16C026822F001
:1012C000300211430160E8E7B0F5405F18BFB0F5A8
:1012D000804FEFD111E0386840F4003038600CE006
:1012E00004F104004FF0000101F0C4FA04E0002111
:1012F00004F1240001F060FB054695B12E462088DC
:1013000010F4005F2CD0206EB0F5403F26D011DCE9
:1013100020B3B0F5803F14D0B0F5003F18D00125C0
:101320001DE0E16DD8F8000020F4E0400843C8F863
:101330000000E4E7B0F5802F18BFB0F5A02FEED184
:101340000CE004F104004FF0010101F093FA04E015
:10135000012104F1240001F02FFB05469DB12E462A
:10136000208810F4804F2DD0D4F8AC00B0F1405F4D
:1013700026D011DC20B3B0F1805F14D0B0F1005F53
:1013800018D001251DE0206ED8F8001021F4E021CE
:101390000843C8F80000E3E7B0F1804F18BFB0F190
:1013A000A04FEED10CE004F104004FF0010101F078
:1013B00061FA04E0012104F1240001F0FDFA054680
:1013C0007DB12E46208810F4004F20D0E06EE0B1B1
:1013D000B0F1805F0FD0B0F1005F18BF01250FD0D2
:1013E00014E0D4F8AC00D9F8001021F0E041084333
:1013F000C9F80000E6E7386840F40030386004E0DF
:101400000121201D01F036FA05467DB12E462068E7
:1014100010F0807F1FD0606CD8B101280FD0022857
:1014200012D0032818BF012513D013E0E06ED8F8BE
:10143000001021F040510843C8F80000E7E7386881
:1014400040F40030386004E00221201D01F012FA5F
:10145000054605B32E46206810F4800F32D0DFF821
:1014600024A0DAF8000040F48070CAF80000FFF70A
:101470000FFB09E02C4402585044025858440258CB
:101480004C440258004802588346DAF8000010F431
:10149000807F08D014E0FE48616C026822F00302ED
:1014A00011430160D7E7FFF7F3FAA0EB0B006428C4
:1014B00001D9032505E0DAF8000010F4807FF2D0AE
:1014C0008DB12E462078DFF8CCA310F0010F71D03B
:1014D000A06F18286CD059DCA8B308285BD010285E
:1014E00060D0012565E0EC48B4F8B020016802F452
:1014F000407001F4407181420CD0E74801680268F5
:1015000021F4407142F480320260026822F4803299
:1015100002600160D4F8B000B0F5807F19D1FFF708
:10152000B7FA8246DC48016811F0020F08BF41F2A9
:10153000883B0ED1FFF7ACFAA0EB0A00584503D95F
:1015400003252E46BEE733E0D348006810F0020FB3
:10155000F0D0D4F8B0104FF440708843CF481CBF8F
:10156000016821F47C5109D00160CB48B4F8B01077
:101570000268C1F30B0111430160A3E7C84A036885
:1015800002EA111123F47C521143EDE7202818BF21
:101590002828A6D10CE004F104004FF0010101F06D
:1015A00069F904E0012104F1240001F005FA05467F
:1015B00065B12E46207810F0020F1FD0606F06280C
:1015C0001AD2DFE800F0170C11171717A06FDAF81E
:1015D000001021F038010843CAF80000EAE70121B1
:1015E000201D01F047F904E0012104F1240001F07D
:1015F000E3F905467DB100E001252E46207810F084
:10160000040F20D0D4F8900006281AD2DFE800F0AA
:10161000170C11171717606FDAF8001021F0070187
:101620000843CAF80000E9E70121201D01F022F972
:1016300004E0012104F1240001F0BEF90546ADB13A
:1016400000E001252E46207810F0200F2ED0D4F88F
:101650008C00B0F1405F27D012DC28B3B0F1805F7E
:1016600015D0B0F1005F19D001251EE0D4F890002C
:10167000D9F8001021F007010843C9F80000E2E79B
:10168000B0F1804F18BFB0F1A04FEDD10CE004F1E4
:1016900004004FF0000101F0EDF804E0022104F134
:1016A000240001F089F905469DB12E46207810F0FE
:1016B000400F2ED0D4F89800B0F5406F27D012DC40
:1016C00028B3B0F5806F15D0B0F5006F19D00125A3
:1016D0001EE0D4F88C00DAF8001021F0E041084355
:1016E000CAF80000E2E7B0F5805F18BFB0F5A05F70
:1016F000EDD10CE004F104004FF0000101F0BAF864
:1017000004E0022104F1240001F056F905469DB1E0
:101710002E46207810F0800F2ED0D4F89C00B0F523
:10172000C04F27D012DC28B3B0F5005F15D0B0F55C
:10173000804F19D001251EE0D4F89810D9F8000088
:1017400020F4E0500843C9F80000E2E7B0F5004F8C
:1017500018BFB0F5204FEDD10CE004F104004FF0BC
:10176000000101F087F804E0022104F1240001F0F7
:1017700023F9054685B32E46207810F0080F0BD0CC
:10178000D4F88000B0F5805F31D0DAF8001021F491
:1017900040510843CAF80000207810F0100F0BD019
:1017A000D4F89400B0F5807F2AD0D9F8001021F445
:1017B00040710843C9F80000206810F4002F35D0AC
:1017C000D4F8A00028B3B0F5803F27D0B0F5003F93
:1017D00018BF012528D028E0FFE7D4F89C00D9F8ED
:1017E000001021F460410843C9F80000C4E7022159
:1017F00004F1240001F0E0F8002818BF0126CBE72F
:10180000022104F1240001F0D7F8002818BF0126B6
:10181000D2E70021201D01F02DF804E0022104F19F
:10182000240001F0C9F8054695B12E46206810F451
:10183000802F24D0D4F88400B0F5801F12D0B0F5EA
:10184000001F14D0B0F5401F18BF012515D015E0BA
:10185000D4F8A000D9F8001021F440310843C9F8A9
:101860000000E3E7386840F40030386005E001210B
:1018700004F1240001F0A0F80546BDB12E46206811
:1018800010F4803F28D0E06CD0B1B0F5803F09E083
:101890004C440258544402587044025810440258B0
:1018A000CFFFFF0018BF01250FD014E0D4F884004B
:1018B000DAF8001021F440110843CAF80000DEE70E
:1018C000386840F40030386004E00221201D00F048
:1018D000D1FF0546EDB12E46206810F0005F07D01D
:1018E000022104F1240001F067F8002818BF012646
:1018F000206810F4003F1BD0E06FB8B1B0F5807FD6
:1019000010D0B0F5007F1CBFB0F5407F01250DD091
:101910000DE03148E16C026822F4803242EA0101B4
:101920000160D9E7386840F400303860F5B32E46DE
:10193000206810F4801F08D0206FD8F8001021F024
:10194000004141EA0000C8F80000206810F0805F04
:1019500008D02248D4F8B410026822F4804242EA47
:1019600001010160206810F4001F08D0A06ED8F8B3
:10197000001021F0807141EA0000C8F800002068E2
:1019800010F0804F0AD01548016821F40041016031
:101990000168D4F8B82041EA02010160206810F023
:1019A000004F09D00C48216D026800E00AE022F0E7
:1019B000405242EA01010160002E0CBF00200120CC
:1019C000BDE8F09FE06FDAF8001021F440710843A1
:1019D000CAF80000ACE700004C440258104402581A
:1019E000002804BF012070472DE9F05F8F4F0446A7
:1019F0008846386800F00F0040450AD2386820F069
:101A00000F0040EA08003860386800F00F004045D9
:101A10007DD12078864D10F0040F0AD02069296806
:101A200001F07001884204D9296821F0700108434F
:101A3000286020787F4E10F0080F0AD06069316866
:101A400001F07001884204D9316821F07001084327
:101A50003060207810F0100F0AD0A069316801F4CE
:101A6000E061884204D9316821F4E06108433060C4
:101A7000207810F0200F0BD06F48E169026802F067
:101A80007002914204D9026822F070021143016091
:101A9000207810F0020F0AD0E068296801F00F01E9
:101AA000884204D9296821F00F0108432860207872
:101AB00010F0010F49D06149A0682A6822F47062D1
:101AC000104328606068022829D003282CD00968B8
:101AD00001282ED011F0040F56D0DFF86491D9F808
:101AE000001021F007010843C9F80000FEF7D0FFFD
:101AF000D9F800108246606801F03801B1EBC00FE0
:101B000018BF41F2883B20D0FEF7C2FF00E03BE067
:101B1000A0EB0A00584510D90320BDE8F09F0968E2
:101B200011F4003FD9D12FE0096811F0007FD4D122
:101B30002AE011F4807FD0D126E06068D9F8001047
:101B400001F03801B1EBC00FDED1207810F0020FA8
:101B50000AD0E068296801F00F01814204D92968A0
:101B600021F00F0108432860386800F00F0040455D
:101B70000DD9386820F00F0040EA08003860386856
:101B800000F00F00404502D00120BDE8F09F207812
:101B900010F0040F0AD02069296801F07001814219
:101BA00004D9296821F0700108432860207810F0DA
:101BB000080F0AD06069316801F07001814204D9D0
:101BC000316821F0700108433060207810F0100F68
:101BD0000AD0A069316801F4E061814204D931681A
:101BE00021F4E06108433060207810F0200F0BD022
:101BF0001148E169026802F070028A4204D9026861
:101C000022F070021143016000F07CF829680D4A4F
:101C1000C1F30321515C01F01F01C8400A4908606B
:101C20000A480068BDE8F05FFEF782BF002000525E
:101C3000184402581C4402582044025800440258D8
:101C400010440258E85E0008880000208000002050
:101C500010B5FFF739F8064A06491268064B02F03C
:101C60000F029A5C02F01F02D040086010BD000015
:101C7000184402588C000020E85E000810B5FFF7F9
:101C800023F8DFF830C00C490C4A0CF10403DCF8EF
:101C900000C00CF00F0C11F80CC00CF01F0C20FA57
:101CA0000CF010601A68C2F30212895C01F01F0187
:101CB000C84010BD18440258E85E00088C0000209F
:101CC00010B5FFF701F8DFF830C00C490C4A0CF1F1
:101CD0000403DCF800C00CF00F0C11F80CC00CF081
:101CE0001F0C20FA0CF010601A68C2F30222895C03
:101CF00001F01F01C84010BD18440258E85E0008FA
:101D00008C0000205E4930B45E4809685E4B11F0DB
:101D100038020CD00111082A06D0102A02BF5B48F5
:101D200030BC7047182A0ED030BC0846704719687E
:101D300011F0200F04BF30BC7047196830BCC1F3EC
:101D4000C101C84070475249524C01F1040C0A6865
:101D50000968DCF80050246802F0030C05F0010269
:101D6000C1F30511C4F3CC04002914FB02F200EE08
:101D7000102AF8EE400A02BF002030BC7047BCF1C8
:101D8000000F9FED451A454AB7EE000A1BD0DFED64
:101D9000441ABCF1010F02D0BCF1020F4AD002EE8E
:101DA000101A1068F8EE422AC0F3080081EEA22A49
:101DB00001EE900AF8EE611A40EE811A31EE800AC7
:101DC00022EE000A4BE0D3F800C01CF0200F1BD01D
:101DD0001B6801EE901A1168C3F3C103F8EE612A83
:101DE000D84001EE900AC1F30800F8EE611A81EEC6
:101DF000A22A01EE900AF8EE611A40EE811A31EE45
:101E0000800A22EE000A2AE001EE901A1068DFED47
:101E1000252AF8EE611AC0F3080082EEA12A01EE2D
:101E2000900AF8EE611A40EE811A31EE800A22EE35
:101E3000000A14E001EE901A1068DFED1B2AF8EE9C
:101E4000611AC0F3080082EEA12A01EE900AF8EEB2
:101E5000611A40EE811A31EE800A22EE000A106803
:101E600030BCC0F34620401C00EE900AF8EE600A39
:101E700080EE201ABCEEC10A10EE100A7047000076
:101E8000104402580090D0030044025800127A0017
:101E900028440258344402580000003930440258A3
:101EA0000024744A0024744C0024F44A002804BF1F
:101EB000012070472DE9F05F04460078DFF8F093C9
:101EC000DFF8F08310F0010FFB4D59D0D9F8000076
:101ED00000F03801D8F80000102919D0182904BFE3
:101EE00000F00300022813D06068B0F5803F04BF03
:101EF000286840F4803014D010B1B0F5A02F1BD06A
:101F0000286820F480302860286820F4802008E0C9
:101F1000286810F4003F33D06068002800F09382F6
:101F20002EE028606068D0B1FEF7B2FD0646286852
:101F300010F4003F08D023E0286840F48020286097
:101F4000286840F48030ECE7FEF7A2FD801B64288F
:101F500000F2EB81286810F4003FF5D010E0FEF7A6
:101F600097FD0646286810F4003F09D0FEF790FD63
:101F7000801B642800F2D981286810F4003FF5D155
:101F8000207841F20307CD4E10F0020F7BD0D9F834
:101F90000000D8F8001010F0380014D0182808BF3E
:101FA00011F0030F0FD0E068C0B3296821F01901C8
:101FB00041EA00002860FEF76BFD8246286810F0B9
:101FC000040F33D03DE0286810F0040F03D0E06820
:101FD000002800F03882E068296821F019010843E0
:101FE0002860FEF755FD8246286810F0040F0AD1DC
:101FF000FEF74EFDA0EB0A00022800F29681286849
:1020000010F0040FF4D0FEF73DFDB84207D8206968
:10201000316821F47C3141EA00301CE01DE0207C75
:10202000316821F0FE4141EA006014E0FEF730FD26
:10203000A0EB0A00022800F27881286810F0040F53
:10204000F4D0FEF71FFDB842E1D9217C306820F0C2
:10205000FE4040EA0160306015E0286820F0010091
:102060002860FEF715FD8246286810F0040F0AD09C
:10207000FEF70EFDA0EB0A00022800F25681286848
:1020800010F0040FF4D1207810F0100F61D0D9F8BF
:102090000000DFF82CB200F03801D8F80000082961
:1020A00014D0182904BF00F0030001280ED0E06905
:1020B0000028286839D040F080002860FEF7E8FC4E
:1020C0008246286810F4807F20D029E0286810F428
:1020D000807F1CBFE069802840F0B581FEF7D2FC0C
:1020E000B84208D894F82000316821F0F84141EA5C
:1020F000806030602DE094F82000DBF8001021F0C3
:102100007C5141EA0060CBF8000022E0FEF7C0FC01
:10211000A0EB0A0002287DD8286810F4807FF5D053
:10212000FEF7B0FCB842E6D8DCE720F0800028607B
:10213000FEF7AEFC0646286810F4807F09D000BF89
:10214000FEF7A6FC801B022864D8286810F4807F64
:10215000F6D1207810F0080F2BD05A4F6069002874
:10216000386813D040F001003860FEF791FC064655
:10217000386810F0020F1CD1FEF78AFC801B022881
:1021800048D8386810F0020FF6D012E020F00100B5
:102190003860FEF77DFC0646386810F0020F08D064
:1021A000FEF776FC801B022834D8386810F0020F46
:1021B000F6D1207810F0200F2BD0A06900282868D5
:1021C00014D040F480502860FEF762FC0646286870
:1021D00010F4005F1DD100BFFEF75AFC801B0228DF
:1021E00018D8286810F4005FF6D012E020F4805070
:1021F0002860FEF74DFC0646286810F4005F08D002
:10220000FEF746FC801B022804D8286810F4005F03
:10221000F6D100E089E0207810F0040F6AD02A4E51
:10222000306840F480703060FEF732FC074630685A
:1022300010F4807F09D100BFFEF72AFCC01B642880
:1022400073D8306810F4807FF6D0A0681F4F012843
:1022500004BF386840F0010009D008B1052813D048
:10226000386820F001003860386820F004003860D9
:10227000A06841F28836D0B1FEF70AFC8246386881
:1022800010F0020F08D035E0386840F004003860E4
:10229000386840F00100EAE7FEF7FAFBA0EB0A001D
:1022A000B04242D8386810F0020FF5D022E00FE0BB
:1022B000104402582844025800440258044402586A
:1022C0000C440258744402580048025870440258A2
:1022D000FEF7DEFB8246386810F0020F0AD000BF1E
:1022E000FEF7D6FBA0EB0A00B0421ED8386810F00B
:1022F000020FF5D1606AE8B3D9F8001001F0380197
:1023000018297CD00228286820F0807028600FD01F
:10231000FEF7BEFB0446286810F0007F2AD000BFFD
:10232000FEF7B6FB001B02286AD90320BDE8F09F28
:10233000FEF7AEFB0646286810F0007F09D000BF0C
:10234000FEF7A6FB801B0228EFD8286810F0007F5C
:10235000F6D1E16AD8F80020A06A22F0F30222F454
:10236000407242EA01110843C8F800004FF4FE072A
:10237000380200E064E0218E94F834C094F83C60A8
:10238000A1F10108228F711E304B4FEA4C2C521ED6
:10239000ACF5007C0CF47E4CC8F3080607EA024258
:1023A0004CEA060C00EA01614CEA0202181F0A43DB
:1023B0001A60191D026822F0010202600A68A36C0B
:1023C0006FF3CF0242EAC3020A600268216C22F076
:1023D0000C02114301600168626C21F0020111439B
:1023E0000160016841F480310160016841F400310D
:1023F0000160016841F480210160016801E022E090
:1024000019E041F001010160286840F08070286007
:10241000FEF73EFB0446286810F0007F10D100BF95
:10242000FEF736FB001B02283FF67FAF286810F04E
:10243000007FF5D004E0286810F0007F7FF470AFD3
:102440000020BDE8F09F0120BDE8F09F3044025815
:10245000401EB0F1807F24BF012070474FF0E02183
:102460004861F020034A82F8140D00200722886199
:102470000A6170470FE000E090F87C10012904BF6A
:10248000022070474DF8044D012280F87C20242161
:102490004FF0200C0022C0F8801001680B680C6817
:1024A00023F0005324F001040C60426601680B60C5
:1024B000C0F880C080F87C2010465DF8044B70475F
:1024C00090F87C10012904BF022070474DF8044D9C
:1024D000012185B080F87C102422C0F88020026899
:1024E000136814684FF0005C24F001041460C0F815
:1024F00064C043F0005203681A601BA2D2E9003C9A
:102500001BA2CDE9003CD2E90032CDE90232426E95
:10251000002A04BFA0F86A10A0F8681019D001685A
:102520000DF1080C8A688968C2F34262490F1DF8F0
:1025300001401CF80110E400B4FBF1F4A0F86A407B
:102540001DF802101CF80220C900B1FBF2F2A0F83D
:10255000682020220021C0F8802080F87C1005B07F
:1025600008465DF8044B70470101010307010000B4
:10257000080402040801010190F87C20012A04BF2C
:102580000220704730B4012284B080F87C202423DC
:10259000C0F880300368D3F800C01C6824F0010440
:1025A0001C6003689C6824F06064214399601A4CA5
:1025B00004F10803D4E90014CDE90014D3E90013B1
:1025C000CDE90213416E002908BFA0F86A2014D09B
:1025D000016802AC8A688968C2F34262490F1DF83B
:1025E0000150615CED00B5FBF1F5A0F86A501DF8F3
:1025F0000210A25CC900B1FBF2F2A0F86820202210
:1026000003680021C3F800C0C0F8802080F87C1067
:1026100004B0084630BC70476825000890F87C205C
:10262000012A04BF0220704730B4012284B080F830
:102630007C202423C0F880300368D3F800C01C68D5
:1026400024F001041C6003689C6824F0604421436A
:1026500099601A4C04F10803D4E90014CDE9001480
:10266000D3E90013CDE90213416E002908BFA0F899
:102670006A2014D0016802AC8A688968C2F3426299
:10268000490F1DF80150615CED00B5FBF1F5A0F8B4
:102690006A501DF80210A25CC900B1FBF2F2A0F86A
:1026A0006820202203680021C3F800C0C0F8802001
:1026B00080F87C1004B0084630BC704768250008DC
:1026C000002804BF0120704710B50446D0F88000F0
:1026D00028B9002084F87C00204600F029F8242046
:1026E000C4F880002068016821F0010101602046E3
:1026F00000F07AFB012808BF10BDA06A00281CBFAB
:10270000204600F0D3FA2068416821F490414160EE
:102710002068816821F02A0181602068016841F009
:10272000010101602046BDE8104000F02CBB000014
:102730004DF804ED87B000210091019102910391C1
:1027400004910068A0F18042B2F590421CBF07B02E
:102750005DF804FB0F48016841F4802101600068C6
:1027600000F4802005900C48016841F008010160E8
:10277000006802210722049200F0080005904FF43F
:102780004070CDE9000105486946FEF755F807B0ED
:102790005DF804FBE8440258E0440258000C02587B
:1027A0002DE9F8430446D0F880001F4615460E4632
:1027B000202858D1002E12BF002D0120BDE8F8833B
:1027C00094F87C0001284ED0012184F87C1021204F
:1027D0004FF00008C4F88880C4F88000FEF758F96C
:1027E0008146A068A4F85450A4F85650B0F5805F14
:1027F00003BF206900280025354618BF0026B4F81D
:102800005600E8B14B464FF000024FF080012046E1
:10281000009701F023FAD8B9002D14BF15F8010B69
:1028200036F8020B216808BFC0F308008862B4F8CC
:102830005600401EA4F85600B4F856000028E1D116
:1028400000224B4640212046009701F007FA10B1C4
:102850000320BDE8F8832020C4F88000002084F81D
:102860007C80BDE8F8830220BDE8F883FEE7FEE740
:10287000704770472DE9F047DFF82C9188460446F1
:1028800003200027D9F80010884304BF0120BDE8C9
:10289000F087464E306820F080603060FEF7F8F830
:1028A0000546306810F0006F09D000BFFEF7F0F861
:1028B000401B02286DD8306810F0006FF6D12068F8
:1028C000D9F8001021F47C3141EA0030C9F8000049
:1028D0004FF4FE010A0294F808C0A588B4F80C90E1
:1028E00094F810A06D1E4FEA4C2C314BACF5007CD7
:1028F0003048A9F101090CF47E4CAAF1010AC5F394
:10290000080501EA09414CEA050C02EA0A624CEAB0
:102910000101114319600268616922F0C00211438C
:1029200001600168A26921F020010A430260191DBB
:10293000026822F0100202600A68E3696FF3CF02B6
:1029400042EAC3020A600168B8F1000F41F01001C9
:10295000016014D00168B8F1010F0CBF41F480117F
:1029600041F400110160306840F080603060FEF793
:102970008FF80446306810F0006F05D010E0016851
:1029800041F400210160EEE7FEF782F8001B022807
:1029900002D90320BDE8F087306810F0006FF3D053
:1029A0003846BDE8F0870000284402580044025829
:1029B000384402582C4402582DE9F047DFF82C9196
:1029C0008846044603200027D9F80010884304BF36
:1029D0000120BDE8F087464E306820F0805030601E
:1029E000FEF756F80546306810F0005F09D000BFCA
:1029F000FEF74EF8401B02286DD8306810F0005FDB
:102A0000F6D12088D9F8001021F07C7141EA0050FD
:102A1000C9F800004FF4FE010A0294F808C0A58826
:102A2000B4F80C9094F810A06D1E4FEA4C2C314B6A
:102A3000ACF5007C3048A9F101090CF47E4CAAF1F8
:102A4000010AC5F3080501EA09414CEA050C02EA4E
:102A50000A624CEA0101114319600268616922F4BB
:102A60004062114301600168A26921F400710A43C8
:102A70000260191D026822F4807202600A68E3692C
:102A80006FF3CF0242EAC3020A600168B8F1000F97
:102A900041F48071016014D00168B8F1010F0CBFDE
:102AA00041F4000141F080710160306840F08050D5
:102AB0003060FDF7EDFF0446306810F0005F05D090
:102AC00010E0016841F480010160EEE7FDF7E0FFEE
:102AD000001B022802D90320BDE8F087306810F0FF
:102AE000005FF3D03846BDE8F08700002844025864
:102AF00000440258404402582C44025870470000D9
:102B000002480168491C01607047000078000020FD
:102B100030B5CBB04C212FA8FDF712FC0024429415
:102B20004394BC2144946846459446944794489401
:102B30004994FDF705FC0420FEF77AF82048214966
:102B4000026842F44042026002680A6842F00102F0
:102B50000A60096801F001014A91016811F4005FFF
:102B6000FBD0202202252F950123CDE9323204200B
:102B70003A903C21CDE93854CDE93B150C223D95E6
:102B80003E952FA8CDE93F244194FFF78FF94020CF
:102B900044944FF4806C08230322CDE94530CDE9FD
:102BA000470C3F214990CDE94212042142A8FEF78B
:102BB00017FF684600951D94FEF75AFA4BB030BDDA
:102BC000184802582C0400582D4B30B42D4AD3F825
:102BD00000C000202C494CF4700CC3F800C01368EE
:102BE000DFF8A8C043F00404294B14600A6842F0DF
:102BF00001020A60CCF800000A68264D1A400A60FB
:102C000005F1040C0CF10404234A2860131DCCF8D0
:102C1000000003F1040C20600CF104041060221D7C
:102C20001860131DCCF8000003F1040C20600CF1B7
:102C3000040410601860CCF8000020600B684FF0AE
:102C4000B042DFF858C023F480230B60CCF80000BA
:102C5000D2F8E400124940F48040C2F8E400086869
:102C60006FF30F00B0F1005F03D20E490120C1F8ED
:102C700008014FF000600C49086030BC704700004C
:102C800088ED00E010ED00E00044025810440258C6
:102C90007FEDF6EA1844025828440258604402586E
:102CA0000010005C0080005108ED00E090F8281052
:102CB00011F0010F06D00168C26A4B6823F400339B
:102CC0001A434A6090F8281011F0020F06D00168EC
:102CD000026B4B6823F480331A434A6090F8281043
:102CE00011F0040F06D00168426B4B6823F4802377
:102CF0001A434A6090F8281011F0080F06D00168B6
:102D0000826B4B6823F400431A434A6090F8281002
:102D100011F0100F06D00168C26B8B6823F480534A
:102D20001A438A6090F8281011F0200F06D001682D
:102D3000026C8B6823F400531A438A6090F82810C1
:102D400011F0400F11D00168426C4B6823F48013DE
:102D50001A434A60416CB1F5801F06D10168826C4C
:102D60004B6823F4C0031A434A6090F8281011F00E
:102D7000800F08BF70470168C06C4A6822F40022C7
:102D8000104348607047F8B500250446C0F88850E5
:102D9000FDF77EFE074620686FF07E46006810F063
:102DA000080F08D000223B464FF400112046009641
:102DB00000F054FF68B92068006810F0040F0AD0D2
:102DC00000223B464FF480012046009600F046FF6B
:102DD00008B10320F8BD2020C4F8800084F87C509E
:102DE000C4F884000020F8BD2DE9F04F0446D0F867
:102DF0001CC0816887B00068D4E90432656E19434D
:102E0000F94B42EA0C06D0F800C03143F74A294397
:102E10004FF000090CEA0303194301602068E168E0
:102E2000436823F44053194341602368A0699342E7
:102E30001CBF216A08439D68ED4925F4306525F0E3
:102E40006E45284398602068636AC56A25F00F05BF
:102E50002B43C3622068A0F1804CBCF5883C2FD086
:102E6000A0F18043B3F588433BD0A0F18043B3F594
:102E7000904340D0A0F18043B3F5984345D0A0F1F2
:102E80008043B3F5A0434AD0A0F18043B3F58A3321
:102E90004FD0A0F18043B3F5F0435ED0A0F1804362
:102EA000B3F5F84363D0904279D1091D096801F068
:102EB0000701062973D2DFE801F066686A6C6E705C
:102EC000096801F03801182963D005DCE9B3082945
:102ED0005BD010295BD062E020295CD028295CD02F
:102EE0005DE0096801F00701062958D2DFE801F02A
:102EF000494D4F515355096801F0070106294ED23B
:102F0000DFE801F03F434547494B096801F00701FD
:102F1000062944D2DFE801F035393B3D3F410968DD
:102F200001F0070106293AD2DFE801F02B2F3133F7
:102F30003537096801F0380118292AD006DC21B19B
:102F4000082922D0102922D029E004E0202922D00B
:102F5000282922D023E0012522E0096801F0070199
:102F600006291CD2DFE801F00D11131517190968A5
:102F700001F00701062912D2DFE801F00307090B6F
:102F80000D0F00250CE002250AE0042508E00825C5
:102F900006E0102504E0202502E0402500E0802521
:102FA000944FDFF854B290424FF400414FF00006C6
:102FB0004FEA271A40F01E83102D6AD007DC022D3D
:102FC0000BD0042D29D0082D45D000F048B9202D74
:102FD0007ED0402D7DD000F042B9FDF78BFE01463A
:102FE000606A002800F02281012800F02181022877
:102FF00000F0208103286DD004286CD005286BD008
:1030000006286AD0072869D0082868D0092867D020
:103010000A2866D00B2870D008E16846FDF77CFED0
:10302000606A0199002863D0012867D002287DD00A
:1030300003284FD004284ED005284DD006284CD068
:1030400007284BD008284AD0092849D00A2848D058
:103050000B2852D0EAE003A8FDF734FF606A049918
:10306000002845D0012849D002285FD0032831D05C
:10307000042830D005282FD006282ED007282DD0A0
:1030800008282CD009282BD00A282AD00B2834D085
:10309000CCE0DBF8000010F0200F606A2FD0DBF8E6
:1030A00000100028C1F3C10127FA01F120D0012846
:1030B00024D002283AD003280CD004280BD00528AD
:1030C0000AD0062809D0072808D0082807D009E028
:1030D00049E093E0B0E0B1E0B2E0B3E0B4E0B5E0E5
:1030E00080E080E009287DD00A287CD00B2804D01D
:1030F0009CE000BFB1FBF0F067E0ADE098E070B39A
:10310000012808BF02202BD0022808BF042027D0A6
:10311000032808BF062023D0042808BF08201FD09A
:10312000052808BF0A201BD0062800E082E008BF5F
:103130000C2015D0072808BF102011D0082808BF80
:1031400020200DD0092808BF402009D00A2808BF38
:10315000802005D00B2808BF4FF4807000D00120DC
:10316000B7FBF0F031E0606A60B3012808BF0220CD
:1031700029D0022808BF042025D0032808BF062034
:1031800021D0042808BF08201DD0052808BF0A2028
:1031900019D0062808BF0C2015D0072808BF10201A
:1031A00011D0082808BF20200DD0092808BF4020D2
:1031B00009D00A2808BF802005D00B2808BF4FF48B
:1031C000807000D00120BAFBF0F0002800F0CD8222
:1031D000D4F8048008EB4801814298BFB0EB083F67
:1031E00041D93CE034E035E0F369FFCF000C0058F2
:1031F000544402580090D00300440258606AA8B1B9
:10320000012815D0022815D0032815D0042815D080
:10321000052815D0062815D0072815D0082815D060
:10322000092815D00A2815D00B2815D0012061E7F0
:1032300002205FE704205DE706205BE7082059E7EE
:103240000A2057E70C2055E7102053E7202051E7CC
:1032500040204FE780204DE74FF480704AE74FF061
:10326000010900F082BA102D2846FA4D77D022DCF1
:1032700002287CD0042874D00828F0D103A8FDF7D8
:1032800021FE0499606AE8B301286BD002286AD055
:10329000032869D0042868D0052867D006287DD087
:1032A00007287CD008287BD009287AD00A2879D032
:1032B0000B2878D0ADE0202876D04028CFD1606AA6
:1032C00070B3012808BF02222BD0022808BF0422B5
:1032D00027D0032808BF062223D0042808BF0822CD
:1032E0001FD0052808BF0A221BD0062808BF0C22C1
:1032F00017D0072808BF102213D0082808BF2022A3
:103300000FD000E068E0092808BF402209D00A2851
:1033100008BF802205D00B2808BF4FF4807200D070
:10332000012200234FF400401946FCF7D1FF02466A
:103330004FEA012C11024FEA580008184CEA1262B9
:1033400042EB060142460023FCF7C2FFA0F54071A4
:10335000A9429CBF2168C86040F207827FE771E004
:1033600005E03AE057E058E059E05AE05BE0FDF74D
:10337000C1FC0146606A78B301284CD002284CD0C9
:1033800003284CD004284CD005284CD006284CD01B
:1033900007284CD008284CD0092806E045E046E034
:1033A00047E048E049E04AE0DFE044D00A2844D062
:1033B0000B2844D02DE0002308461946FCF788FF6F
:1033C00062680902030241EA10615008181871414D
:1033D0000023FCF77DFFB9E71BE06846FDF79CFC86
:1033E0000199606AA8B1012815D0022815D00328D8
:1033F00015D0042815D0052815D0062815D0072883
:1034000015D0082815D0092815D00A2815D00B2862
:1034100015D00122CFE70222CDE70422CBE7062216
:10342000C9E70822C7E70A22C5E70C22C3E7102232
:10343000C1E72022BFE74022BDE78022BBE74FF46F
:103440008072B8E7DBF8000010F0200F48D0DBF8FE
:103450000000C0F3C10027FA00F1606A60B30128E0
:1034600008BF022229D0022808BF042225D0032841
:1034700008BF062221D0042808BF08221DD0052835
:1034800008BF0A2219D0062808BF0C2215D0072829
:1034900008BF102211D0082808BF20220DD009280B
:1034A00008BF402209D00A2808BF802205D00B2877
:1034B00008BF4FF4807200D001220846002319464D
:1034C000FCF706FF0902034600024FEA580241EAF0
:1034D00013618018424671410023FCF7F9FE35E77D
:1034E000606A60B3012808BF022229D0022808BF01
:1034F000042225D0032808BF062221D0042808BFB3
:1035000008221DD0052808BF0A2219D0062808BFA6
:103510000C2215D0072808BF102211D0082808BF98
:1035200020220DD0092808BF402209D00A2808BF50
:10353000802205D00B2808BF4FF4807200D00122F2
:10354000384600231946FCF7C3FE02464FEA012C19
:1035500011024FEA580008184CEA126242EB0601C9
:1035600042460023FCF7B4FEF0E6606A60B301282F
:1035700008BF022229D0022808BF042225D0032830
:1035800008BF062221D0042808BF08221DD0052824
:1035900008BF0A2219D0062808BF0C2215D0072818
:1035A00008BF102211D0082808BF20220DD00928FA
:1035B00008BF402209D00A2808BF802205D00B2866
:1035C00008BF4FF4807200D00122504600231946F4
:1035D000FCF77EFE02464FEA012C11024FEA58002A
:1035E00008184CEA126242EB060142460023FCF73F
:1035F0006FFEABE6E0694FF6EF78B0F5004F2BD0E9
:10360000082D6CD06CDC002D6BD0012D6AD0042D00
:103610007FF425AE6846FDF77FFB606A01990028BC
:1036200000F07E8201287CD002287BD003287AD04B
:10363000042879D0052878D0062877D0072876D0B6
:10364000082875D0092874D00A2873D00B2872D0A6
:1036500066E20000FFFC0F00082D6DD022DCE5B310
:10366000012D6AD0042D7FF4FAAD6846FDF754FBB6
:10367000606A019990B301287ED002287DD003288A
:103680007CD004287BD005287AD0062879D007285A
:1036900078D0082877D0092876D00A2875D00B284A
:1036A00074D0E7E0102D72D0202D71D0402D7FF422
:1036B000D6AD606A98B3012808BF022030D0022836
:1036C00008BF04202CD0032808BF062028D00428D7
:1036D00008BF082024D0052805E05FE095E0EBE175
:1036E00069E1AFE1CAE108BF0A2019D0062808BF86
:1036F0000C2015D0072808BF102011D0082808BFBB
:1037000020200DD0092808BF402009D00A2808BF72
:10371000802005D00B2808BF4FF4807000D0012016
:103720000CE0E6E1E7E1E8E1E9E1EAE1EBE1ECE127
:10373000EDE1EEE1EFE1F0E168E04BE0B1FBF0F04C
:103740006268400000EB5200B0FBF2F01FFA80F01C
:10375000A0F1100141453FF682AD4FF6F0732168AC
:10376000C0F3420218401043C8600120A4F86A0068
:10377000A4F86800E6660CE065E066E067E068E0F3
:1037800069E06AE06BE06CE06DE06EE06FE07BE0CA
:10379000D7E0266707B04846BDE8F08FFEF76EFA1F
:1037A0000146606A88B301284DD002284DD0032815
:1037B0004DD004284DD005284DD006284DD00728DF
:1037C0004DD008284DD009284DD00A284DD00B28BF
:1037D0004DD04FE0FEF774FA0146606AA8B10128A7
:1037E00031D0022831D0032831D0042831D0052827
:1037F00031D0062831D0072831D0082831D0092807
:1038000031D00A2831D00B2831D033E003A8FDF79E
:1038100059FB606A049968B3012814D0022814D0B7
:10382000032814D0042814D0052814D0062814D056
:10383000072814D0082814D0092814D00A2814D036
:103840000B2814D016E0022015E0042013E0062017
:1038500011E008200FE00A200DE00C200BE0102002
:1038600009E0202007E0402005E0802003E04FF43D
:10387000807000E00120B1FBF0F16068490001EBCD
:103880005001B1FBF0F094E0DBF8000010F0200FE5
:10389000606A1ED0DBF80010C1F3C10127FA01F104
:1038A0000028E7D00128CED00228CED00328CED0E1
:1038B0000428CED00528CED00628CED00728CED0DA
:1038C0000828CED00928CED00A28CED00B28D1D1B6
:1038D000CDE760B3012808BF022029D0022808BF25
:1038E000042025D0032808BF062021D0042808BFC3
:1038F00008201DD0052808BF0A2019D0062808BFB7
:103900000C2015D0072808BF102011D0082808BFA8
:1039100020200DD0092808BF402009D00A2808BF60
:10392000802005D00B2808BF4FF4807000D0012004
:103930006168B7FBF0F0400000EB5100B0FBF1F024
:1039400037E0606A60B3012808BF022029D002284E
:1039500008BF042025D0032808BF062021D0042852
:1039600008BF08201DD0052808BF0A2019D0062846
:1039700008BF0C2015D0072808BF102011D0082838
:1039800008BF20200DD0092808BF402009D00A28F0
:1039900008BF802005D00B2808BF4FF4807000D0EE
:1039A00001206168BAFBF0F0400000EB5100B0FB71
:1039B000F1F080B2CCE6102D7CD0202D7BD0402DB4
:1039C0007FF44DAC606A60B3012808BF022029D0A3
:1039D000022808BF042025D0032808BF062021D0D4
:1039E000042808BF08201DD0052808BF0A2019D0C8
:1039F000062808BF0C2015D0072808BF102011D0BA
:103A0000082808BF20200DD0092808BF402009D071
:103A10000A2808BF802005D00B2808BF4FF480700B
:103A200000D001206268B1FBF0F000EB5200B0FB67
:103A3000F2F080B2A0F11001414598BF21687FF6F5
:103A400093AE0CE4FEF71AF90146606A88B30128C8
:103A50004FD002284FD003284FD004284FD005283C
:103A60004FD006284FD007284FD008284FD009281C
:103A70004FD00A284FD00B284FD051E0FEF720F945
:103A80000146606AA8B1012833D0022833D0032848
:103A900033D0042833D0052833D0062833D0072864
:103AA00033D0082833D0092833D00A2833D00B2844
:103AB00033D035E03DE098E003A8FDF703FA606AF3
:103AC000049968B3012814D0022814D0032814D014
:103AD000042814D0052814D0062814D0072814D0A0
:103AE000082814D0092814D00A2814D00B2814D080
:103AF00016E0022015E0042013E0062011E0082063
:103B00000FE00A200DE00C200BE0102009E020203F
:103B100007E0402005E0802003E04FF4807000E0E3
:103B20000120B1FBF0F1606801EB5001B1FBF0F056
:103B300092E0DBF8000010F0200F606A1ED0DBF886
:103B40000010C1F3C10127FA01F10028E8D00128D3
:103B5000CFD00228CFD00328CFD00428CFD005283B
:103B6000CFD00628CFD00728CFD00828CFD009281B
:103B7000CFD00A28CFD00B28D2D1CEE760B301280E
:103B800008BF022029D0022808BF042025D003281E
:103B900008BF062021D0042808BF08201DD0052812
:103BA00008BF0A2019D0062808BF0C2015D0072806
:103BB00008BF102011D0082808BF20200DD00928E8
:103BC00008BF402009D00A2808BF802005D00B2854
:103BD00008BF4FF4807000D001206168B7FBF0F09F
:103BE00000EB5100B0FBF1F036E0606A60B30128F1
:103BF00008BF022029D0022808BF042025D00328AE
:103C000008BF062021D0042808BF08201DD00528A1
:103C100008BF0A2019D0062808BF0C2015D0072895
:103C200008BF102011D0082808BF20200DD0092877
:103C300008BF402009D00A2808BF802005D00B28E3
:103C400008BF4FF4807000D001206168BAFBF0F02B
:103C500000EB5100B0FBF1F080B2EBE62DE9F0474C
:103C60000446006899461746089D0E46C06931EA29
:103C700000000CBF01200020B84204BF4FF0000A32
:103C80004FF0200848D100BFB5F1FF3F3BD0FCF713
:103C9000FFFEA0EB0900A84222D80DB320680168FE
:103CA00011F0040F1CBFC06910F4006F2BD0216805
:103CB0004FF4006008622068016821F4D07101604F
:103CC0002068816821F001018160C4F88080C4F817
:103CD0008480C4F88880032084F87CA0BDE8F08745
:103CE0002068016821F4D07101602068816821F0AA
:103CF00001018160C4F88080C4F88480032084F8C6
:103D00007CA0BDE8F0872068C06936EA00000CBFDF
:103D100001200020B842B7D00020BDE8F087FEE7C0
:103D20000FB4054B10B503A9044A029800F0DAF865
:103D300010BC5DF814FB0000294F00089000002023
:103D400002E008C8121F08C1002AFAD17047704764
:103D5000002001E001C1121F002AFBD170470000C2
:103D60002DE9FF5F82B00021DDE90430020DDDF8AE
:103D700040B0034318D044F61050A2F2FF32424341
:103D80001514119801281FD0A5EB0B00401C5FEA09
:103D9000000A4FF000064E4FDFF83891B04650460B
:103DA00015D5CAF1000413E0119801244AA3012893
:103DB00001D16FEA0B010298119AC0E90031C0E904
:103DC000024206B0BDE8F09FCBF10000DFE70446F9
:103DD0000021404A491842EB0450CDE9001012E09E
:103DE000E00707D032463B4640464946FCF78FFB8A
:103DF0008046894632463B4610461946FCF787FB0B
:103E000006460F466410002CEAD1DDE90401DDE925
:103E10000023BAF1000F06DAFCF779FB42464B4665
:103E2000FCF775FB05E0FCF7E4FB42464B46FCF76C
:103E3000E0FB04460E460022284BFCF761FC03D849
:103E40004FF0FF30014607E00022254B2046314667
:103E5000FCF7B6FAFCF73CFC102409E0002C0ADB66
:103E60000A220023FCF734FA039B30321A55641EF1
:103E700050EA0102F2D1641C039AC4F11103144404
:103E8000119A012A03D0012208430DD10AE0084308
:103E900004D000204FF0110B119072E7A3EB0B053B
:103EA0006D1E0DE05B4504DD4FF0000205F10105DC
:103EB00004E003DA4FF00002A5F10105002AECD07E
:103EC00002981199C0E90231C0E9004579E7000084
:103ED000000014400000F03F300000000000F043FC
:103EE0000000E03F2DE9FF4F95B09B46894606460E
:103EF00000250FE2252877D100242746F84A012122
:103F0000059400E0044316F8013F203B01FA03F05A
:103F10001042F7D130782A2811D06FF02F03307873
:103F2000A0F13002092A16D8059A44F0020402EBE7
:103F3000820203EB42021044761C0590EFE759F829
:103F4000042B0592002A03DA504244F400540590F1
:103F500044F00204761C30782E2816D116F8010F92
:103F600044F004042A280DD06FF02F023078A0F11D
:103F70003003092B09D807EB870302EB4303C7186B
:103F8000761CF3E759F8047B761C30786C280FD048
:103F900006DC4C2817D068280DD06A2814D104E01C
:103FA000742810D07A280FD10DE044F400140AE0F0
:103FB00044F4801401E044F440147278824202D147
:103FC00004F58014761C761C307866280BD013DC40
:103FD000582877D009DC002875D04528F6D0462827
:103FE000F4D047281AD19DE118E0632835D0642821
:103FF00079D0652812D195E1702873D008DC672844
:10400000F1D069286FD06E280DD06F2806D1B5E0A9
:1040100073282CD0752875D0782874D05A461799F3
:1040200090476D1C75E1C4F30250022809D00328A3
:104030000DD0D9F8001004280DD00D6009F1040945
:1040400067E1D9F80010EA17C1E90052F6E7D9F89C
:1040500000100D80F2E70D70F0E719F8041B8DF8E1
:10406000001000208DF80100EA46012003E059F815
:1040700004AB4FF0FF3061074FF0000102D40DE0B8
:1040800008F101018846B9420FDA8045F8DB1AF8D9
:1040900008100029F4D108E008F1010188468142A6
:1040A000FADB1AF808100029F6D105985B46A0EB58
:1040B000080721463846179A00F094FA284400EB86
:1040C000080507E04DE029E10DE01AF8010B5A461A
:1040D00017999047B8F10108F7D25B462146384658
:1040E000179A13E142E00A220092C4F302524FF001
:1040F000000A022A08D059F804CB032A4FEAEC71CF
:104100000AD00DE029E02AE009F1070121F00702B9
:10411000F2E802C1914609E00FFA8CFC4FEAEC711B
:10412000042A03D14FFA8CFC4FEAEC71002907DA1C
:104130000A460021DCF1000C61EB02012D2202E0B5
:10414000220504D52B228DF80420012203E0E2078A
:1041500001D02022F7E7904659E00A2102E0102220
:104160000DE010214FF0000A00910BE010224FF0FB
:10417000000A44F004040827009203E008224FF0EC
:10418000000A0092C4F30252022A05D059F804CB67
:104190000021032A08D009E009F1070121F00702F4
:1041A000F2E802C1914605E01FFA8CFC042A01D115
:1041B0000CF0FF0C4FF00008220728D5702806D01D
:1041C000009B83F0100353EA0A0305D00EE040225F
:1041D0008DF80420012208E05CEA010206D03022BA
:1041E0008DF804208DF8050002229046009B83F094
:1041F000080353EA0A030AD15CEA010201D162070B
:1042000005D530228DF804204FF001087F1E582874
:1042100004D034A003900EA802900DE036A0F9E778
:1042200053466046009AFCF753F884460398825C34
:104230000298401E029002705CEA0100F0D10298E0
:1042400006A9081A00F1200A600702D524F4803478
:1042500000E00127574502DDA7EB0A0000E000203F
:1042600000EB0A01009005984144401A0590E003D4
:1042700006D45B462146179A059800F0B3F9054429
:10428000002706E001A85A46C05D179990476D1CAB
:104290007F1C4745F6DBE0030CD55B462146179AA9
:1042A000059800F09FF9054404E030205A4617991C
:1042B00090476D1C0099481E00900029F5DC08E02D
:1042C000029802995A460078491C02911799904722
:1042D0006D1CBAF10001AAF1010AF1DC65E10000F0
:1042E00009280100303132333435363738396162CC
:1042F0006364656600000000303132333435363790
:1043000038394142434445460000000000F058F966
:104310000544761C307800287FF4ECAD19B02846AF
:10432000BDE8F08F620700D4062709F1070222F0EA
:10433000070CFCE80223E14603F000485FEA080CA2
:1043400002D00FF2702C0DE05FEA045C02D50FF290
:10435000682C07E05FEAC47C02D00FF2602C01E019
:10436000AFF2700C4FF0FF3823F00043CDF850C08F
:1043700065280CD006DC452809D046281DD04728E2
:104380003DD13DE0662818D067287ED138E0002175
:10439000112F01DB112000E0781CCDE9000106A9F6
:1043A0000EA8FFF7DDFCDDE90F010E9A0391002155
:1043B000009207F1010A04914DE04FF00040009790
:1043C000CDE9011006A90EA8FFF7CAFCDDE90F022E
:1043D00003920E9B11990022DDF80CA00093049229
:1043E00011B9791C00EB010AB7EB0A0004D4C0F143
:1043F000FF3007F1010A0490AAEB0700019044E0A6
:10440000012F00DA01270021112F01DD112000E02A
:104410003846CDE9000106A90EA8FFF7A1FCDDE9A9
:104420000F010E9A0391002104910092BA462107D0
:104430000CD40399514500DA8A46BAF1010F05DD23
:10444000009AAAF10101515C302908D0B84202DA81
:1044500010F1040F06DA0121CDE9011015E0AAF1EF
:104460000101E9E7002805DC049901440491AAEB65
:10447000000102E0411C514500DD8A460499401AC2
:10448000401C01904FF000400290200704D4019896
:10449000504501DBCDF8048000208DF84F000298D4
:1044A0000DF14F07B0F1004F25D02B200E90029850
:1044B0004FF0020800280CDA404202902D200E90A6
:1044C00007E00A210298FBF746FF3031029007F817
:1044D000011DB8F10001A8F10108F2DC02980028E2
:1044E000EFD1791E0E980870307800F0200040F06F
:1044F000450007F8020D12A8C01B00F10708149828
:10450000007800B1012000EB0A01019801EBE07195
:1045100005984144401A401E0590E00306D45B46CE
:104520002146179A059800F05DF805441498007824
:1045300018B15A46179990476D1CE00324D55B4685
:104540002146179A059800F04DF805441CE00498A0
:10455000002807DBDDE90301884203DD0098405CA9
:10456000179901E0179930205A469047049805F1B1
:104570000105401C04900198401E019004D12E209A
:104580005A46179990476D1CBAF10001AAF1010A29
:10459000DDDC05E017F8010B5A46179990476D1CB2
:1045A000B8F10001A8F10108F4DC5B462146179A36
:1045B0000598ABE62D0000002B0000002000000055
:1045C0002DE9F041044600251E461746880404D410
:1045D00005E039462020B0476D1C641EF9D52846F9
:1045E000BDE8F0812DE9F041044600251E469046C5
:1045F000C80301D5302700E02027880404D505E052
:1046000041463846B0476D1C641EF9D52846BDE8C2
:10461000F081F0B5B0F90060074683B00C46C6F3F0
:10462000C01000281EBF06F07F0003B0F0BDC6F327
:10463000C30116F0070041EA011113D0012818BF89
:10464000354623D0A8B2218F00F040FC06F47F420B
:10465000014605F07F002187024342F080023A8044
:1046600003B0F0BD2229B8BF2221208FCDE9001070
:10467000B4F90230B4F90020D4E9051000F006F9CD
:10468000E18F05B2002908BFE587DBE7228F04F13F
:10469000280000F0E9F8A18F05B2002908BFA5871E
:1046A000D0E70020704770B515460E461146FFF75B
:1046B000B0FF044629463046FFF7ABFF201A70BD15
:1046C0006AB9028802F47F43C2F307221A430280C8
:1046D0000A8802F47F43C2F307221A430A80B0F922
:1046E0000200B1F90210401A704700002DE9F05F96
:1046F000B0F904A089464FF0000C456A69F31F46E3
:104700000246BAF1000FE0466746614645DDC8B291
:104710002C4660F30F06331408D484B16068B0F9F6
:104720000200984218BF2468F7D108E03CB1D4F8E1
:1047300004B09BF800B0834518BF2468F6D14FF051
:10474000000035B1D5F800B0286028465FEA0B05B7
:10475000F8D1002C054646D0606808F101081FFA20
:1047600088F8B0F9000010F0010F04D0C0F3402029
:1047700060441FFA80FC206830B1D0F800B0C4F863
:1047800000B02C6804602860002BA4BF581C60F3A4
:104790001F46481C01B25145B9DBC7EB8800604495
:1047A0001FFA80F8B9F1000F04DD2D49284600F00A
:1047B00047FA054600222868D0E900717B6843600B
:1047C0007960016809680160311428463A6048BF81
:1047D00031B213D4D8B14268B2F902208A4218BF6C
:1047E0000068F7D111E028687C1CA7B240680088F7
:1047F000C0F3002060441FFA80FCC5E738B142686E
:1048000012788A4218BF0068F8D1044601E02C688B
:104810004CB168684146B0F9000000F035FB2468EF
:104820008046002CF5D1296878684A687A600022B1
:1048300048600868386028460F600A4900F000FAAE
:10484000046805464CB168684146B0F9000000F0C4
:104850001BFB24688046002CF5D14046BDE8F09F44
:10486000A7460008C146000838B51546D0E901231F
:10487000D0F800C0C46860460091214601F074F889
:104880002946BDE8384000F0FFBA00002DE9F04F9E
:1048900091B0044600200D4608AF9846DDE91A6A3B
:1048A000009093460190029003900490059006902A
:1048B0000790089009900A900B900C900D900E9024
:1048C000CDE90F05287860B110A8694600F00BFA11
:1048D00057F82010491C47F820101098007800283D
:1048E000F2D128192C46001B10953044A0F1010983
:1048F00099FBF6F00028C8BF0BF0FF0207DD217816
:104900002C291CBF514021703444401EF7D1109512
:10491000287860B110A8694600F0E5F957F8201032
:10492000491C47F82010109800780028F2D199FB14
:10493000F6F010950028C8BF08F0FF0207DD2978BF
:104940002C291CBF514029703544401EF7D100244A
:104950004FEA0D05514657F8240000F0D9FA55F8F2
:1049600024200146104600F0D3FA641C8246082C2D
:10497000F0D311B0BDE8F08F2DE9F04F002A4FF0D1
:10498000010C4FF0000408BF0122002805D9641C67
:1049900004FB04F5ED00A842F9D8601E491E00FB97
:1049A00000FE21F0030101F1040B00280BEB4E0A7D
:1049B00018BF002127D900E010B301FB00F54FF02C
:1049C000000407460AEB45060BEB45050CEB040912
:1049D0007F1E09FB02F204F101044FEAE27802EBC8
:1049E00018486FF30F08A2EB080209EB020826F83B
:1049F000028BC14409F0FF0825F8028BE6D18444FC
:104A0000491C8142D8D30AEB4E01491E21F0030113
:104A1000091DC3E9000BC3E902A1BDE8F08F000046
:104A20002DE9F84F0027A0F101083846B8F1010F31
:104A30003D463E4651D9DFF8EC9009F1100A09F1E4
:104A4000200B20E0FDB11044009015F0010FA6F1FD
:104A50000103A0F1010003D013F801CF00F801CF4A
:104A60005FEA550C08D05C78BCF1010C447013F877
:104A7000024F00F8024FF6D1DDF800C02C230EF1F2
:104A800001000CF80530491C09B201F00703082B9E
:104A90001DD2DFE803F00404040A0A101016C1F363
:104AA000C103042559F8236011E0C1F3C1030825AF
:104AB0005AF823600BE0C1F3C10308255BF82360BB
:104AC00005E0194BC1F3C10C082553F82C6000EB2D
:104AD000050E0EF101034345B4D308F101018842EC
:104AE00038BFB1F1004F13D2091A104411F0010F71
:104AF000A0F1010018BF00F8017F490808BFBDE818
:104B0000F88F4770491E00F8027FFAD1BDE8F88F90
:104B1000814298BFBDE8F88F1754401C8842FBD3F0
:104B2000BDE8F88F20000020500000202DE9F00F94
:104B300004464FF0140CB4FBFCFC084648F2800914
:104B4000002347F6FF785F1EACF1020601F1080C66
:104B500001EBC60404EB8605C0E900346380231D25
:104B60004968A1F800900CF10801A1423CBF03F193
:104B70000409A9450DD2E14601680CF1080CC9F8F9
:104B80000010C0F80090C9F804301F80A3F802801C
:104B90001B1D002E4FF0000123D900BF82EA010740
:104BA00007F00F090F4669F3DF070CF10809A1456B
:104BB00047EA07273CBF03F1040AAA450ED2E246A2
:104BC000D0F800900CF1080CCAF80090C0F800A0D2
:104BD000CAF804301F80A3F802801B1D491CB14293
:104BE000DCD303680121D3F800C0BCF1000F1DD055
:104BF000DFF844C0ACFB064C4FEA9C048C4203D95E
:104C00005D688C46491C09E081EA020C5D68491C1C
:104C100001F007064CEA062CCCF30D0CA5F802C0F7
:104C20001B68D3F800C0BCF1000FE7D1BDE8F00F5E
:104C30000249002200F004B8CDCCCCCCC14600081B
:104C40002DE9F74F82464FF0010900275FEA0A0578
:104C5000BB46BA4641D000BF4FF000062C46B9F122
:104C6000000F30460BF1010BD8BFC84624DD246885
:104C7000761C002C1CBF401C4845F8DBC846002EA3
:104C80001ADD7EB1B8F1000F18BF002C06D0DDE9A7
:104C90000132616868689847002803DC761E284660
:104CA0002D6803E020462468A8F10108002F14BFF6
:104CB000386082460746E2E7B8F1000F02DD002CBB
:104CC000DFD101E02500C7D100203860BBF1010F22
:104CD000C8BF4FEA4909B8DC01E00020006003B01A
:104CE0005046BDE8F08F0368844600201A78002AF9
:104CF00000F0C6802C2A5FD0A2F13000092837D8F6
:104D00000A680420521C0A6013F8012F002A6FD091
:104D10002C2A7CD061E0A2F130000928886900F1DA
:104D2000010284BF01208A6171D88A61072013F8CB
:104D3000012F002A5CD02C2A79D168E02B2A18BFD9
:104D40002D2ACA6874D002F101024FF00100CA6036
:104D50005DE0A2F1300009282FD88868421C8A60E3
:104D600013F8012F0420002A42D02C2A4FD034E01F
:104D70002B2A18BF2D2A0AD02E2A13D04A680120C8
:104D8000521C4A600A68521C0A605B1C78E00A6880
:104D90000220521C0A6013F8012F002A70D02C2A1E
:104DA00035D0D6E70A680520521C0A6013F8012F97
:104DB000002A65D02C2A2CD129E02E2A8A6803D01B
:104DC0000120521C8A6022E00520521C8A6013F8E0
:104DD000012F6AB12C2A1CD119E02E2A09D0303AB1
:104DE000092A10D813F8012F12B12C2AF5D10EE0A0
:104DF00037E00A690520521C0A6113F8012F82B3BB
:104E00002C2A06D103E00869421C0A6101205B1CC0
:104E100036E0452A18BF652A0BD0A2F13002092AD4
:104E200011D813F8012FE2B12C2AF2D1EFE719E0E3
:104E30000EE04A690320521C4A6113F8012F82B127
:104E40002C2AE4D07AE74869421C4A610120DEE757
:104E50000620521CCA6013F8012F12B12C2AD6D09A
:104E600059E70DE0303A092A05D813F8012F3AB175
:104E70002C2AF7D1CBE74868421C4A600120C6E7DC
:104E8000CCF800307047000083B25FF00802D8B25F
:104E900080EA010C40081CF0010F1ABF4AF2010C15
:104EA0008CEA51014908521EF2D108464AF2010C1F
:104EB000190A082281EA0003490813F0010F14BF00
:104EC0008CEA50004008521EF4D170475FF008028F
:104ED0000346C0B280EA010C40081CF0010F1ABF63
:104EE0004AF2010C8CEA51014908521EF2D10846DF
:104EF0004AF2010C190A082281EA0003490813F05A
:104F0000010F14BF8CEA50004008521EF4D17047C4
:104F100010B5044600B2FFF7B7FF22140146BDE802
:104F200010401046FFF7B0BF13B5054801224FF6F9
:104F3000FF736946FDF734FC009802B010BD000015
:104F400094000020062810D2DFE800F00F030608C6
:104F50000B0D074800687047064800E006480068E7
:104F600070470648FBE70648F9E700207047000055
:104F70006000002064000020680000206C00002019
:104F80007000002001480068704700007800002091
:104F90002DE9F34F2DED028BADF6240D0A460027C7
:104FA0007E1E3C460DF62C01B84602AD0DF14A00BE
:104FB00000F04AFEFEA0FEF7B3FE0120FFF7C2FF9D
:104FC000ADF808000220FFF7BDFFADF80A0003208E
:104FD000FFF7B8FFADF80C000420FFF7B3FF09900E
:104FE0000520FFF7AFFF00280A9004BF07200A90B2
:104FF000BDF8081066204FF0000A002901BFBDF877
:105000000A100029BDF80C10002905D1ADF808A040
:10501000ADF80AA0ADF80C00BDF80810012901BFD9
:10502000BDF80A100029BDF80C10002907D143F281
:105030001541ADF80810ADF80A10ADF80C0014A831
:1050400004904FF4FA61BDF808004FF0010BADF881
:105050000800BDF80A000891ADF80A00BDF80C0080
:10506000ADF80C000A98ADF848A010F0010F18BF79
:1050700001240A9810F0020F18BF641C0A9810F05F
:10508000040F18BF641CB1FBF4F008900A9810F0EC
:10509000010F06D00899049801FB07004FF00107A3
:1050A00005900A9810F0020F07D0089A07F1010046
:1050B000049902FB0711074606910A9810F0040FA5
:1050C00004D00899049801FB070007904FF00007EF
:1050D00007EB071905EB890494F8200010F0010F85
:1050E00006D035F92920E1680898FFF71FFD6062B6
:1050F00094F8200010F0020F0BD0B4F802C004F1B5
:10510000280335F929202169089842EA0C42FFF763
:1051100033FC94F8200010F0040F05D035F9291065
:1051200062690898FFF77CFC781C07043F0CCFD01D
:105130000998002804BFB7EE008BCDF824B05ED0EC
:1051400000F096FEDDF824900027ADF840A002ACF8
:10515000ADF844A0B9F1000FADF842A0ADF846A0FB
:1051600016D901212046FFF7C1FA218FFFF7AEFEC5
:105170004FF0FF3120872046FFF7B8FA218FFFF765
:10518000A5FE002F208708BF60877F1C4F45E8D30E
:1051900000F08EFEFFF7F6FE00900021BDF908003A
:1051A000FFF772FEBDF90A2001461046FFF76CFEBC
:1051B000BDF90C2001461046FFF766FE089A01462D
:1051C00012B21046FFF760FE47F605320190811AD1
:1051D000904204BF012678A06CD058DC00F20E701B
:1051E000B0F5005004BF04267EA063D000F6432033
:1051F000B0F5804F04BF022685A05BD052E009982D
:1052000000EB80004000099000F032FEDDF82490B1
:105210000027ADF840A002ACADF844A0B9F1000FF2
:10522000ADF842A0ADF846A016D901212046FFF7FF
:105230005DFA218FFFF74AFE4FF0FF3120872046AD
:10524000FFF754FA218FFFF741FE002F208708BF98
:1052500060877F1C4F45E8D300F02AFEFFF792FEDF
:1052600000F032FEB4EEC08BF1EE10FAC7DCBCEEFB
:10527000C00B10EE100A002808BF01200A21099A6D
:10528000B1FBF0F0401C00FB02F0099058E7A1F5DB
:105290006060FD3809D00D30B0F5C04F04BF032663
:1052A00068A007D04FF0FF3865E0002671A0FEF738
:1052B00037FD01E0FEF734FD7A490868002818BF81
:1052C000002758D9784B03F10A0000F10A0203EBDA
:1052D000460B00EB460A02EB460900BF07EB07113D
:1052E0004FF0000005EB810494F82010A4F8400072
:1052F00011F0010F0DD0628FBBF800309A4208D038
:105300006AA03946FEF70CFDB4F84000401CA4F832
:10531000400094F8200010F0020F0DD0A28FBAF8D0
:1053200000309A4208D06DA03946FEF7F9FCB4F877
:105330004000401CA4F8400094F8200010F0040F36
:105340000DD0E28FB9F800309A4208D070A03946EB
:10535000FEF7E6FCB4F84000401CA4F840005149B8
:10536000781CB4F8402087B202EB080009680FFAF5
:1053700080F88F42B2D3FFF794F94044089907B2FE
:105380006FA0FEF7CDFC009973A0FEF7C9FC009852
:1053900000F09AFD53EC102B75A0FEF7C1FC0098AD
:1053A00000F092FDB5EEC00BF1EE10FAECE000005B
:1053B00048656C6C6F0A0000366B2076616C69641E
:1053C0006174696F6E2072756E20706172616D65B7
:1053D0007465727320666F7220636F72656D61729F
:1053E0006B2E0A00324B2076616C69646174696FC0
:1053F0006E2072756E20706172616D657465727376
:1054000020666F7220636F72656D61726B2E0A0089
:1054100050726F66696C652067656E65726174694C
:105420006F6E2072756E20706172616D6574657249
:105430007320666F7220636F72656D61726B2E0AE6
:1054400000000000324B20706572666F726D616EF5
:1054500063652072756E20706172616D657465722E
:105460007320666F7220636F72656D61726B2E0AB6
:1054700000000000366B20706572666F726D616EA1
:1054800063652072756E20706172616D65746572FE
:105490007320666F7220636F72656D61726B2E0A86
:1054A0000000000074000020000000205B25755DF6
:1054B0004552524F5221206C6973742063726320ED
:1054C000307825303478202D2073686F756C642017
:1054D0006265203078253034780A00005B25755DE0
:1054E0004552524F5221206D617472697820637267
:1054F0006320307825303478202D2073686F756CE8
:1055000064206265203078253034780A000000007D
:105510005B25755D4552524F52212073746174654D
:105520002063726320307825303478202D20736812
:105530006F756C64206265203078253034780A00FD
:10554000436F72654D61726B2053697A652020202C
:10555000203A20256C750A00546F74616C207469C0
:10556000636B732020202020203A20256C750A00D0
:10557000546F74616C2074696D6520287365637362
:10558000293A2025660A000012DD009800F09CFCF4
:1055900068480999006801FB00F001EE100A66A056
:1055A000B8EE412B82EE001B53EC112BFEF7B8FB3B
:1055B000009800F089FCB2EE041BB4EEC10BF1EED2
:1055C00010FA04D262A0FEF7ABFB781C07B2DFF83A
:1055D00064810998D8F8001000FB01F16CA0FEF777
:1055E0009FFB71A17CA0FEF79BFB81A187A0FEF72A
:1055F00097FB8CA18DA0FEF793FB019991A0FEF77C
:105600008FFB0A9810F0010F1EBFD8F80000002889
:1056100000240ED904EB0410214605EB8000428FD4
:105620008FA0FEF77DFBD8F80010601C84B2A14269
:10563000F0D80A9810F0020F1EBFD8F8000000281A
:1056400000240ED904EB0410214605EB8000828F64
:105650008AA0FEF765FBD8F80000611C8CB2A0425E
:10566000F0D80A9810F0040F15D0D8F800000028E0
:1056700018BF002425D011D904EB0410214605EBF6
:105680008000C28F84A0FEF74BFBD8F80000611C9D
:105690008CB2A042F0D8D8F8000090B100240028C5
:1056A0000FD900BF04EB0410214605EB8000028FE8
:1056B00080A0FEF735FBD8F80010601C84B2A14230
:1056C000F0D8002FC8BF82A003D024DDFEF728FB4E
:1056D00024E08448FEF724FB032E1FD1009800F03D
:1056E000F3FB099842A2D8F800302FA1CDE90012AF
:1056F00000FB03F001EE100A7BA0B8EE412B82EE16
:10570000001B53EC112BFEF70BFB46A17DA0FEF70F
:1057100007FB1EA0DAE77D48FEF702FB05F1420019
:1057200000F08FFA0DF6240D0020BDEC028B02B0C4
:10573000BDE8F08F74000020497465726174696F70
:105740006E732F5365632020203A2025660A0000DF
:105750004552524F5221204D757374206578656310
:1057600075746520666F72206174206C6561737456
:10577000203130207365637320666F72206120765C
:10578000616C696420726573756C74210A00000095
:10579000497465726174696F6E7320202020202027
:1057A000203A20256C750A00506C65617365207085
:1057B000757420636F6D70696C65722076657273A5
:1057C000696F6E20686572652028652E672E2067D8
:1057D000636320342E312900436F6D70696C6572EC
:1057E0002076657273696F6E203A2025730A000077
:1057F0002D4F6873202D6E6F5F73697A655F636FDD
:105800006E73747261696E7473000000436F6D7023
:10581000696C657220666C6167732020203A2025D0
:10582000730A0000535441434B0000004D656D6FF7
:105830007279206C6F636174696F6E20203A202545
:10584000730A000073656564637263202020202062
:1058500020202020203A203078253034780A00009B
:105860005B25645D6372636C697374202020202063
:1058700020203A203078253034780A005B25645D9A
:105880006372636D617472697820202020203A2051
:105890003078253034780A005B25645D6372637369
:1058A000746174652020202020203A203078253033
:1058B00034780A005B25645D63726366696E616CAF
:1058C0002020202020203A203078253034780A000B
:1058D0004572726F72732064657465637465640ADF
:1058E000000000005C5F0008436F72654D61726BE1
:1058F00020312E30203A202566202F2025732025A8
:1059000073000000202F202573000000F85E0008BF
:105910002DE9F0014FF0000C00286746634618BFE0
:1059200000241DD900E0C0B104FB00F5064601EBE0
:10593000850500BFD5F80080C4449445C4BF4FF02E
:10594000000C0A3304DCB845CCBF012700273B44D8
:1059500047462D1D1BB2761EECD1641C8442E2D357
:10596000BDE8F001184670472DE9FF4F91B00026C1
:105970001E98139B40F470401E9900B20B90119832
:10598000002800FB00F20A9218BF5FEA020C12D056
:1059900010F0010002D01A880A441A8084450AD9FE
:1059A00003EB4002801C8445148855880C44148005
:1059B0000D445580F4D8DDE91109DDF84C801E9DB9
:1059C000002818BF002488BF470828D904FB00F12D
:1059D00010F0010F08EB410309EB8101A3F1020C68
:1059E000A1F1040305D03CF9021F01FB05F143F8C6
:1059F000041F3A000DD000BFBCF90210521E01FB7B
:105A000005F159603CF9041F01FB05F143F8081F3B
:105A1000F2D1641C844202D20028D7D1F9E7DDE933
:105A200011010B9AFFF774FF3146FFF72DFA019031
:105A3000DDF844C0DDE91280DDF850A0BCF1000FB4
:105A4000099018BF002488BF4FEA5C0930D900BF15
:105A50004FF00000BCF1000F48F8240025D004FBF3
:105A60000CF309991CF0010FAAF1020201EB4301AA
:105A7000A1F1020305D033F8021F32F8025F11FBD7
:105A8000050000255FEA09010CD05E88491E578891
:105A9000002933F804BF32F804EF16FB07001BFBA4
:105AA0000E55F2D1284448F82400641C6445CFD335
:105AB000DDE911010B9AFFF72BFF0199FFF7E4F9DC
:105AC0000190DDE912A0099014980D90119800281A
:105AD00018BF002684BF41080C9142D900284FF01E
